{"abi":[{"type":"function","name":"symbol","inputs":[],"outputs":[{"name":"","type":"bytes32","internalType":"bytes32"}],"stateMutability":"pure"}],"bytecode":{"object":"0x608080604052346013576052908160188239f35b5f80fdfe60808060405260043610156011575f80fd5b5f3560e01c6395d89b41146023575f80fd5b346041575f36600319011260415764045524332360dc1b8152602090f35b5f80fdfea164736f6c634300081a000a","linkReferences":{}},"deployedBytecode":{"object":"0x60808060405260043610156011575f80fd5b5f3560e01c6395d89b41146023575f80fd5b346041575f36600319011260415764045524332360dc1b8152602090f35b5f80fdfea164736f6c634300081a000a","linkReferences":{}},"methodIdentifiers":{"symbol()":"95d89b41"},"id":75}