{"abi":[{"type":"function","name":"calculateLockupLinearStreamedAmount","inputs":[{"name":"depositedAmount","type":"uint128","internalType":"uint128"},{"name":"blockTimestamp","type":"uint40","internalType":"uint40"},{"name":"timestamps","type":"tuple","internalType":"struct Lockup.Timestamps","components":[{"name":"start","type":"uint40","internalType":"uint40"},{"name":"end","type":"uint40","internalType":"uint40"}]},{"name":"cliffTime","type":"uint40","internalType":"uint40"},{"name":"unlockAmounts","type":"tuple","internalType":"struct LockupLinear.UnlockAmounts","components":[{"name":"start","type":"uint128","internalType":"uint128"},{"name":"cliff","type":"uint128","internalType":"uint128"}]},{"name":"withdrawnAmount","type":"uint128","internalType":"uint128"}],"outputs":[{"name":"","type":"uint128","internalType":"uint128"}],"stateMutability":"pure"},{"type":"function","name":"calculateLockupTranchedStreamedAmount","inputs":[{"name":"depositedAmount","type":"uint128","internalType":"uint128"},{"name":"blockTimestamp","type":"uint40","internalType":"uint40"},{"name":"timestamps","type":"tuple","internalType":"struct Lockup.Timestamps","components":[{"name":"start","type":"uint40","internalType":"uint40"},{"name":"end","type":"uint40","internalType":"uint40"}]},{"name":"tranches","type":"tuple[]","internalType":"struct LockupTranched.Tranche[]","components":[{"name":"amount","type":"uint128","internalType":"uint128"},{"name":"timestamp","type":"uint40","internalType":"uint40"}]}],"outputs":[{"name":"","type":"uint128","internalType":"uint128"}],"stateMutability":"pure"},{"type":"error","name":"PRBMath_MulDiv18_Overflow","inputs":[{"name":"x","type":"uint256","internalType":"uint256"},{"name":"y","type":"uint256","internalType":"uint256"}]},{"type":"error","name":"PRBMath_MulDiv_Overflow","inputs":[{"name":"x","type":"uint256","internalType":"uint256"},{"name":"y","type":"uint256","internalType":"uint256"},{"name":"denominator","type":"uint256","internalType":"uint256"}]},{"type":"error","name":"PRBMath_UD60x18_IntoUint128_Overflow","inputs":[{"name":"x","type":"uint256","internalType":"UD60x18"}]}],"bytecode":{"object":"0x60808060405234601957610620908161001e823930815050f35b5f80fdfe60806040526004361015610011575f80fd5b5f3560e01c8063485c4f5d146100de5763987117a31461002f575f80fd5b6101003660031901126100da576100446101f3565b61004c610209565b906100563661023d565b60843564ffffffffff811681036100da5760403660a31901126100da5761007b61021d565b9060a4356001600160801b03811681036100da57825260c4356001600160801b03811681036100da57602083015260e435926001600160801b03841684036100da576020956100c995610380565b6001600160801b0360405191168152f35b5f80fd5b60a03660031901126100da576100f26101f3565b6100fa610209565b6101033661023d565b906084359267ffffffffffffffff84116100da57366023850112156100da57836004013567ffffffffffffffff81116101df5760405194601f19603f8360051b0116860186811067ffffffffffffffff8211176101df576040528186526024602087019260061b820101903682116100da57602401915b81831061018f5760206100c9888888886102b2565b6040833603126100da576101a161021d565b9083356001600160801b03811681036100da57825260208401359064ffffffffff821682036100da578260209283604095015281520192019161017a565b634e487b7160e01b5f52604160045260245ffd5b600435906001600160801b03821682036100da57565b6024359064ffffffffff821682036100da57565b604051906040820182811067ffffffffffffffff8211176101df57604052565b60409060431901126100da5761025161021d565b9060443564ffffffffff811681036100da57825260643564ffffffffff811681036100da576020830152565b80511561028a5760200190565b634e487b7160e01b5f52603260045260245ffd5b805182101561028a5760209160051b010190565b909164ffffffffff8082511693168093116103785764ffffffffff60208492015116111561037257508064ffffffffff60206102ed8561027d565b510151161161036c576001600160801b036103078361027d565b515116918051906001925b828410610321575b5050505090565b909192938164ffffffffff6020610338888761029e565b5101511611610366576001600160801b0360019181610357888761029e565b51511601169401929190610312565b9361031a565b50505f90565b91505090565b505050505f90565b9194939064ffffffffff8651169064ffffffffff81169687831161049f576020015164ffffffffff1692878411156104945764ffffffffff861697881161047f57806001600160801b0360208180945116920151160116946001600160801b0385169788871015610473579364ffffffffff6001600160801b0394889461041c946104259998155f1461046357508183910316920316906104ab565b9203169061057e565b6001600160801b03811161045157906001600160801b03809216011691821161044c575090565b905090565b63248b56e760e11b5f5260045260245ffd5b80925083910316920316906104ab565b50505050509250505090565b516001600160801b0316979650505050505050565b505050509250505090565b50505050505050505f90565b5f19670de0b6b3a7640000820991670de0b6b3a764000082029182808510940393808503941461055d578184101561053c57670de0b6b3a7640000829109600182190182168092046002816003021880820260020302808202600203028082026002030280820260020302808202600203028091026002030293600183805f03040190848311900302920304170290565b630c740aef60e31b5f52600452670de0b6b3a764000060245260445260645ffd5b509150811561056a570490565b634e487b7160e01b5f52601260045260245ffd5b9091905f198382098382029182808310920391808303921461060257670de0b6b3a76400008210156105eb577faccb18165bd6fe31ae1cf318dc5b51eee0e1ba569b88cd74c1773b91fac106699394670de0b6b3a7640000910990828211900360ee1b910360121c170290565b8490635173648d60e01b5f5260045260245260445ffd5b5050670de0b6b3a76400009004915056fea164736f6c634300081a000a","linkReferences":{}},"methodIdentifiers":{"calculateLockupLinearStreamedAmount(uint128,uint40,Lockup.Timestamps,uint40,LockupLinear.UnlockAmounts,uint128)":"987117a3","calculateLockupTranchedStreamedAmount(uint128,uint40,Lockup.Timestamps,LockupTranched.Tranche[])":"485c4f5d"},"id":70}