{"abi":[{"type":"function","name":"calculateTrancheTimestamps","inputs":[{"name":"tranchesWithDuration","type":"tuple[]","internalType":"struct LockupTranched.TrancheWithDuration[]","components":[{"name":"amount","type":"uint128","internalType":"uint128"},{"name":"duration","type":"uint40","internalType":"uint40"}]},{"name":"startTime","type":"uint40","internalType":"uint40"}],"outputs":[{"name":"tranchesWithTimestamps","type":"tuple[]","internalType":"struct LockupTranched.Tranche[]","components":[{"name":"amount","type":"uint128","internalType":"uint128"},{"name":"timestamp","type":"uint40","internalType":"uint40"}]}],"stateMutability":"pure"},{"type":"function","name":"checkCreateLockupLinear","inputs":[{"name":"sender","type":"address","internalType":"address"},{"name":"timestamps","type":"tuple","internalType":"struct Lockup.Timestamps","components":[{"name":"start","type":"uint40","internalType":"uint40"},{"name":"end","type":"uint40","internalType":"uint40"}]},{"name":"cliffTime","type":"uint40","internalType":"uint40"},{"name":"totalAmount","type":"uint128","internalType":"uint128"},{"name":"unlockAmounts","type":"tuple","internalType":"struct LockupLinear.UnlockAmounts","components":[{"name":"start","type":"uint128","internalType":"uint128"},{"name":"cliff","type":"uint128","internalType":"uint128"}]},{"name":"brokerFee","type":"uint256","internalType":"UD60x18"},{"name":"shape","type":"string","internalType":"string"},{"name":"maxBrokerFee","type":"uint256","internalType":"UD60x18"}],"outputs":[{"name":"createAmounts","type":"tuple","internalType":"struct Lockup.CreateAmounts","components":[{"name":"deposit","type":"uint128","internalType":"uint128"},{"name":"brokerFee","type":"uint128","internalType":"uint128"}]}],"stateMutability":"pure"},{"type":"function","name":"checkCreateLockupTranched","inputs":[{"name":"sender","type":"address","internalType":"address"},{"name":"timestamps","type":"tuple","internalType":"struct Lockup.Timestamps","components":[{"name":"start","type":"uint40","internalType":"uint40"},{"name":"end","type":"uint40","internalType":"uint40"}]},{"name":"totalAmount","type":"uint128","internalType":"uint128"},{"name":"tranches","type":"tuple[]","internalType":"struct LockupTranched.Tranche[]","components":[{"name":"amount","type":"uint128","internalType":"uint128"},{"name":"timestamp","type":"uint40","internalType":"uint40"}]},{"name":"maxCount","type":"uint256","internalType":"uint256"},{"name":"brokerFee","type":"uint256","internalType":"UD60x18"},{"name":"shape","type":"string","internalType":"string"},{"name":"maxBrokerFee","type":"uint256","internalType":"UD60x18"}],"outputs":[{"name":"createAmounts","type":"tuple","internalType":"struct Lockup.CreateAmounts","components":[{"name":"deposit","type":"uint128","internalType":"uint128"},{"name":"brokerFee","type":"uint128","internalType":"uint128"}]}],"stateMutability":"pure"},{"type":"error","name":"PRBMath_MulDiv18_Overflow","inputs":[{"name":"x","type":"uint256","internalType":"uint256"},{"name":"y","type":"uint256","internalType":"uint256"}]},{"type":"error","name":"PRBMath_UD60x18_IntoUint128_Overflow","inputs":[{"name":"x","type":"uint256","internalType":"UD60x18"}]},{"type":"error","name":"SablierHelpers_BrokerFeeTooHigh","inputs":[{"name":"brokerFee","type":"uint256","internalType":"UD60x18"},{"name":"maxBrokerFee","type":"uint256","internalType":"UD60x18"}]},{"type":"error","name":"SablierHelpers_CliffTimeNotLessThanEndTime","inputs":[{"name":"cliffTime","type":"uint40","internalType":"uint40"},{"name":"endTime","type":"uint40","internalType":"uint40"}]},{"type":"error","name":"SablierHelpers_CliffTimeZeroUnlockAmountNotZero","inputs":[{"name":"cliffUnlockAmount","type":"uint128","internalType":"uint128"}]},{"type":"error","name":"SablierHelpers_DepositAmountNotEqualToTrancheAmountsSum","inputs":[{"name":"depositAmount","type":"uint128","internalType":"uint128"},{"name":"trancheAmountsSum","type":"uint128","internalType":"uint128"}]},{"type":"error","name":"SablierHelpers_DepositAmountZero","inputs":[]},{"type":"error","name":"SablierHelpers_EndTimeNotEqualToLastTrancheTimestamp","inputs":[{"name":"endTime","type":"uint40","internalType":"uint40"},{"name":"lastTrancheTimestamp","type":"uint40","internalType":"uint40"}]},{"type":"error","name":"SablierHelpers_SenderZeroAddress","inputs":[]},{"type":"error","name":"SablierHelpers_ShapeExceeds32Bytes","inputs":[{"name":"shapeLength","type":"uint256","internalType":"uint256"}]},{"type":"error","name":"SablierHelpers_StartTimeNotLessThanCliffTime","inputs":[{"name":"startTime","type":"uint40","internalType":"uint40"},{"name":"cliffTime","type":"uint40","internalType":"uint40"}]},{"type":"error","name":"SablierHelpers_StartTimeNotLessThanEndTime","inputs":[{"name":"startTime","type":"uint40","internalType":"uint40"},{"name":"endTime","type":"uint40","internalType":"uint40"}]},{"type":"error","name":"SablierHelpers_StartTimeNotLessThanFirstTrancheTimestamp","inputs":[{"name":"startTime","type":"uint40","internalType":"uint40"},{"name":"firstTrancheTimestamp","type":"uint40","internalType":"uint40"}]},{"type":"error","name":"SablierHelpers_StartTimeZero","inputs":[]},{"type":"error","name":"SablierHelpers_TrancheCountTooHigh","inputs":[{"name":"count","type":"uint256","internalType":"uint256"}]},{"type":"error","name":"SablierHelpers_TrancheCountZero","inputs":[]},{"type":"error","name":"SablierHelpers_TrancheTimestampsNotOrdered","inputs":[{"name":"index","type":"uint256","internalType":"uint256"},{"name":"previousTimestamp","type":"uint40","internalType":"uint40"},{"name":"currentTimestamp","type":"uint40","internalType":"uint40"}]},{"type":"error","name":"SablierHelpers_UnlockAmountsSumTooHigh","inputs":[{"name":"depositAmount","type":"uint128","internalType":"uint128"},{"name":"startUnlockAmount","type":"uint128","internalType":"uint128"},{"name":"cliffUnlockAmount","type":"uint128","internalType":"uint128"}]}],"bytecode":{"object":"0x60808060405234601957610ad2908161001e823930815050f35b5f80fdfe60806040526004361015610011575f80fd5b5f3560e01c806314412079146104ed5780636df26955146102565763cec85a901461003a575f80fd5b6101403660031901126102525761004f6107ae565b610058366107d1565b906064359164ffffffffff831680930361025257608435906001600160801b03821682036102525760403660a3190112610252576100946106b8565b9060a4356001600160801b038116810361025257825260c435926001600160801b03841684036102525760208301938452610104359067ffffffffffffffff82116102525761010c6100ed610127933690600401610811565b915f60206100f96106b8565b8281520152610124359060e43590610898565b956001600160801b0387511664ffffffffff85511691610991565b83516001600160801b03169480156102295764ffffffffff82511681811015610214575064ffffffffff60208301511690818110156101ff5750505b64ffffffffff6020818351169201511690818110156101ea575050836001600160801b03610198818451168286511690610a10565b16116101c0576040805184516001600160801b03908116825260208087015190911690820152f35b906001600160801b03808593511691511691630b4ba30d60e01b5f5260045260245260445260645ffd5b630517114360e01b5f5260045260245260445ffd5b633717194760e21b5f5260045260245260445ffd5b63da94737160e01b5f5260045260245260445ffd5b506001600160801b03835116806102405750610163565b63150ee1a560e21b5f5260045260245ffd5b5f80fd5b6101203660031901126102525761026b6107ae565b610274366107d1565b90606435916001600160801b03831683036102525760843567ffffffffffffffff81116102525736602382011215610252576102ba90369060248160040135910161072a565b9260e4359067ffffffffffffffff8211610252576103016102e261031c933690600401610811565b915f60206102ee6106b8565b8281520152610104359060c43590610898565b936001600160801b0385511664ffffffffff85511691610991565b6001600160801b038251169280519182156104de5760a43583116104cb5764ffffffffff81511664ffffffffff602061035485610863565b51015116111561049c5760200180515f198401919064ffffffffff168483116104885764ffffffffff60206103898587610884565b51015116036104585750505f905f925f915b8183106103ee576001600160801b03841686888281036103d7576040805183516001600160801b03908116825260208086015190911690820152f35b90506359b0e8dd60e01b5f5260045260245260445ffd5b909192610410906001600160801b036104078685610884565b51511690610a10565b9364ffffffffff8060206104248786610884565b5101511691168082111561043f57509392600101919061039b565b846373a9cd5f60e01b5f5260045260245260445260645ffd5b61046e64ffffffffff9283602093511694610884565b5101511690632828b1df60e11b5f5260045260245260445ffd5b634e487b7160e01b5f52601160045260245ffd5b60206104b164ffffffffff8093511693610863565b5101511690632719805f60e21b5f5260045260245260445ffd5b82630c6a5a6160e31b5f5260045260245ffd5b63ff743f9160e01b5f5260045ffd5b60403660031901126102525760043567ffffffffffffffff811161025257366023820112156102525761052a90369060248160040135910161072a565b6024359064ffffffffff821682036102525780519061055061054b83610712565b6106ec565b82815292601f1961056084610712565b015f5b81811061069957505064ffffffffff6001600160801b0361058384610863565b5151169181602061059386610863565b5101511601166105a16106b8565b91825260208201526105b284610863565b526105bc83610863565b5060015b82811061062857836040518091602082016020835281518091526020604084019201905f5b8181106105f3575050500390f35b825180516001600160801b0316855260209081015164ffffffffff1681860152869550604090940193909201916001016105e5565b806001600160801b0361063d60019385610884565b51511664ffffffffff8060206106565f1986018a610884565b510151168160206106678689610884565b5101511601166106756106b8565b91825260208201526106878287610884565b526106928186610884565b50016105c0565b6020906106a46106b8565b5f81525f8382015282828901015201610563565b604051906040820182811067ffffffffffffffff8211176106d857604052565b634e487b7160e01b5f52604160045260245ffd5b6040519190601f01601f1916820167ffffffffffffffff8111838210176106d857604052565b67ffffffffffffffff81116106d85760051b60200190565b92919261073961054b83610712565b93828552602085019260061b82019181831161025257925b82841061075e5750505050565b604084830312610252576107706106b8565b9084356001600160801b038116810361025257825260208501359064ffffffffff821682036102525782602092836040950152815201930192610751565b6004359073ffffffffffffffffffffffffffffffffffffffff8216820361025257565b6040906023190112610252576107e56106b8565b9060243564ffffffffff8116810361025257825260443564ffffffffff81168103610252576020830152565b81601f820112156102525780359067ffffffffffffffff82116106d857610841601f8301601f19166020016106ec565b928284526020838301011161025257815f926020809301838601378301015290565b8051156108705760200190565b634e487b7160e01b5f52603260045260245ffd5b80518210156108705760209160051b010190565b9291906001600160801b036108ab6106b8565b5f81525f6020820152941691821561097857811561095f5780821161094957506108d59082610a30565b6001600160801b038111610937576001600160801b03166020840190808252821115610923576001600160801b0390511690036001600160801b038111610488576001600160801b03168252565b634e487b7160e01b5f52600160045260245ffd5b63248b56e760e11b5f5260045260245ffd5b90634816cae360e11b5f5260045260245260445ffd5b505090915061096c6106b8565b9081525f602082015290565b50505090506109856106b8565b5f81525f602082015290565b73ffffffffffffffffffffffffffffffffffffffff1615610a01576001600160801b0316156109f25764ffffffffff16156109e45751602081116109d25750565b631f68a77160e21b5f5260045260245ffd5b62fcdef560e71b5f5260045ffd5b6359d1976560e11b5f5260045ffd5b63feb974b360e01b5f5260045ffd5b906001600160801b03809116911601906001600160801b03821161048857565b9091905f1983820983820291828083109203918083039214610ab457670de0b6b3a7640000821015610a9d577faccb18165bd6fe31ae1cf318dc5b51eee0e1ba569b88cd74c1773b91fac106699394670de0b6b3a7640000910990828211900360ee1b910360121c170290565b8490635173648d60e01b5f5260045260245260445ffd5b5050670de0b6b3a76400009004915056fea164736f6c634300081a000a","linkReferences":{}},"methodIdentifiers":{"calculateTrancheTimestamps(LockupTranched.TrancheWithDuration[],uint40)":"14412079","checkCreateLockupLinear(address,Lockup.Timestamps,uint40,uint128,LockupLinear.UnlockAmounts,uint256,string,uint256)":"cec85a90","checkCreateLockupTranched(address,Lockup.Timestamps,uint128,LockupTranched.Tranche[],uint256,uint256,string,uint256)":"6df26955"},"id":69}