{"abi":[{"type":"constructor","inputs":[{"name":"initialAdmin","type":"address","internalType":"address"},{"name":"maxCount","type":"uint256","internalType":"uint256"}],"stateMutability":"nonpayable"},{"type":"function","name":"MAX_BROKER_FEE","inputs":[],"outputs":[{"name":"","type":"uint256","internalType":"UD60x18"}],"stateMutability":"view"},{"type":"function","name":"MAX_COUNT","inputs":[],"outputs":[{"name":"","type":"uint256","internalType":"uint256"}],"stateMutability":"view"},{"type":"function","name":"admin","inputs":[],"outputs":[{"name":"","type":"address","internalType":"address"}],"stateMutability":"view"},{"type":"function","name":"approve","inputs":[{"name":"to","type":"address","internalType":"address"},{"name":"tokenId","type":"uint256","internalType":"uint256"}],"outputs":[],"stateMutability":"nonpayable"},{"type":"function","name":"balanceOf","inputs":[{"name":"owner","type":"address","internalType":"address"}],"outputs":[{"name":"","type":"uint256","internalType":"uint256"}],"stateMutability":"view"},{"type":"function","name":"batch","inputs":[{"name":"calls","type":"bytes[]","internalType":"bytes[]"}],"outputs":[{"name":"results","type":"bytes[]","internalType":"bytes[]"}],"stateMutability":"payable"},{"type":"function","name":"burn","inputs":[{"name":"streamId","type":"uint256","internalType":"uint256"}],"outputs":[],"stateMutability":"payable"},{"type":"function","name":"createWithDurationsLL","inputs":[{"name":"params","type":"tuple","internalType":"struct Lockup.CreateWithDurations","components":[{"name":"sender","type":"address","internalType":"address"},{"name":"recipient","type":"address","internalType":"address"},{"name":"totalAmount","type":"uint128","internalType":"uint128"},{"name":"token","type":"address","internalType":"contract IERC20"},{"name":"transferable","type":"bool","internalType":"bool"},{"name":"shape","type":"string","internalType":"string"},{"name":"broker","type":"tuple","internalType":"struct Broker","components":[{"name":"account","type":"address","internalType":"address"},{"name":"fee","type":"uint256","internalType":"UD60x18"}]}]},{"name":"unlockAmounts","type":"tuple","internalType":"struct LockupLinear.UnlockAmounts","components":[{"name":"start","type":"uint128","internalType":"uint128"},{"name":"cliff","type":"uint128","internalType":"uint128"}]},{"name":"durations","type":"tuple","internalType":"struct LockupLinear.Durations","components":[{"name":"cliff","type":"uint40","internalType":"uint40"},{"name":"total","type":"uint40","internalType":"uint40"}]}],"outputs":[{"name":"streamId","type":"uint256","internalType":"uint256"}],"stateMutability":"payable"},{"type":"function","name":"createWithDurationsLT","inputs":[{"name":"params","type":"tuple","internalType":"struct Lockup.CreateWithDurations","components":[{"name":"sender","type":"address","internalType":"address"},{"name":"recipient","type":"address","internalType":"address"},{"name":"totalAmount","type":"uint128","internalType":"uint128"},{"name":"token","type":"address","internalType":"contract IERC20"},{"name":"transferable","type":"bool","internalType":"bool"},{"name":"shape","type":"string","internalType":"string"},{"name":"broker","type":"tuple","internalType":"struct Broker","components":[{"name":"account","type":"address","internalType":"address"},{"name":"fee","type":"uint256","internalType":"UD60x18"}]}]},{"name":"tranchesWithDuration","type":"tuple[]","internalType":"struct LockupTranched.TrancheWithDuration[]","components":[{"name":"amount","type":"uint128","internalType":"uint128"},{"name":"duration","type":"uint40","internalType":"uint40"}]}],"outputs":[{"name":"streamId","type":"uint256","internalType":"uint256"}],"stateMutability":"payable"},{"type":"function","name":"createWithTimestampsLL","inputs":[{"name":"params","type":"tuple","internalType":"struct Lockup.CreateWithTimestamps","components":[{"name":"sender","type":"address","internalType":"address"},{"name":"recipient","type":"address","internalType":"address"},{"name":"totalAmount","type":"uint128","internalType":"uint128"},{"name":"token","type":"address","internalType":"contract IERC20"},{"name":"transferable","type":"bool","internalType":"bool"},{"name":"timestamps","type":"tuple","internalType":"struct Lockup.Timestamps","components":[{"name":"start","type":"uint40","internalType":"uint40"},{"name":"end","type":"uint40","internalType":"uint40"}]},{"name":"shape","type":"string","internalType":"string"},{"name":"broker","type":"tuple","internalType":"struct Broker","components":[{"name":"account","type":"address","internalType":"address"},{"name":"fee","type":"uint256","internalType":"UD60x18"}]}]},{"name":"unlockAmounts","type":"tuple","internalType":"struct LockupLinear.UnlockAmounts","components":[{"name":"start","type":"uint128","internalType":"uint128"},{"name":"cliff","type":"uint128","internalType":"uint128"}]},{"name":"cliffTime","type":"uint40","internalType":"uint40"}],"outputs":[{"name":"streamId","type":"uint256","internalType":"uint256"}],"stateMutability":"payable"},{"type":"function","name":"createWithTimestampsLT","inputs":[{"name":"params","type":"tuple","internalType":"struct Lockup.CreateWithTimestamps","components":[{"name":"sender","type":"address","internalType":"address"},{"name":"recipient","type":"address","internalType":"address"},{"name":"totalAmount","type":"uint128","internalType":"uint128"},{"name":"token","type":"address","internalType":"contract IERC20"},{"name":"transferable","type":"bool","internalType":"bool"},{"name":"timestamps","type":"tuple","internalType":"struct Lockup.Timestamps","components":[{"name":"start","type":"uint40","internalType":"uint40"},{"name":"end","type":"uint40","internalType":"uint40"}]},{"name":"shape","type":"string","internalType":"string"},{"name":"broker","type":"tuple","internalType":"struct Broker","components":[{"name":"account","type":"address","internalType":"address"},{"name":"fee","type":"uint256","internalType":"UD60x18"}]}]},{"name":"tranches","type":"tuple[]","internalType":"struct LockupTranched.Tranche[]","components":[{"name":"amount","type":"uint128","internalType":"uint128"},{"name":"timestamp","type":"uint40","internalType":"uint40"}]}],"outputs":[{"name":"streamId","type":"uint256","internalType":"uint256"}],"stateMutability":"payable"},{"type":"function","name":"getApproved","inputs":[{"name":"tokenId","type":"uint256","internalType":"uint256"}],"outputs":[{"name":"","type":"address","internalType":"address"}],"stateMutability":"view"},{"type":"function","name":"getCliffTime","inputs":[{"name":"streamId","type":"uint256","internalType":"uint256"}],"outputs":[{"name":"cliffTime","type":"uint40","internalType":"uint40"}],"stateMutability":"view"},{"type":"function","name":"getDepositedAmount","inputs":[{"name":"streamId","type":"uint256","internalType":"uint256"}],"outputs":[{"name":"depositedAmount","type":"uint128","internalType":"uint128"}],"stateMutability":"view"},{"type":"function","name":"getEndTime","inputs":[{"name":"streamId","type":"uint256","internalType":"uint256"}],"outputs":[{"name":"endTime","type":"uint40","internalType":"uint40"}],"stateMutability":"view"},{"type":"function","name":"getLockupModel","inputs":[{"name":"streamId","type":"uint256","internalType":"uint256"}],"outputs":[{"name":"lockupModel","type":"uint8","internalType":"enum Lockup.Model"}],"stateMutability":"view"},{"type":"function","name":"getRecipient","inputs":[{"name":"streamId","type":"uint256","internalType":"uint256"}],"outputs":[{"name":"recipient","type":"address","internalType":"address"}],"stateMutability":"view"},{"type":"function","name":"getRefundedAmount","inputs":[{"name":"streamId","type":"uint256","internalType":"uint256"}],"outputs":[{"name":"refundedAmount","type":"uint128","internalType":"uint128"}],"stateMutability":"view"},{"type":"function","name":"getSender","inputs":[{"name":"streamId","type":"uint256","internalType":"uint256"}],"outputs":[{"name":"sender","type":"address","internalType":"address"}],"stateMutability":"view"},{"type":"function","name":"getStartTime","inputs":[{"name":"streamId","type":"uint256","internalType":"uint256"}],"outputs":[{"name":"startTime","type":"uint40","internalType":"uint40"}],"stateMutability":"view"},{"type":"function","name":"getTranches","inputs":[{"name":"streamId","type":"uint256","internalType":"uint256"}],"outputs":[{"name":"tranches","type":"tuple[]","internalType":"struct LockupTranched.Tranche[]","components":[{"name":"amount","type":"uint128","internalType":"uint128"},{"name":"timestamp","type":"uint40","internalType":"uint40"}]}],"stateMutability":"view"},{"type":"function","name":"getUnderlyingToken","inputs":[{"name":"streamId","type":"uint256","internalType":"uint256"}],"outputs":[{"name":"token","type":"address","internalType":"contract IERC20"}],"stateMutability":"view"},{"type":"function","name":"getUnlockAmounts","inputs":[{"name":"streamId","type":"uint256","internalType":"uint256"}],"outputs":[{"name":"unlockAmounts","type":"tuple","internalType":"struct LockupLinear.UnlockAmounts","components":[{"name":"start","type":"uint128","internalType":"uint128"},{"name":"cliff","type":"uint128","internalType":"uint128"}]}],"stateMutability":"view"},{"type":"function","name":"getWithdrawnAmount","inputs":[{"name":"streamId","type":"uint256","internalType":"uint256"}],"outputs":[{"name":"withdrawnAmount","type":"uint128","internalType":"uint128"}],"stateMutability":"view"},{"type":"function","name":"isApprovedForAll","inputs":[{"name":"owner","type":"address","internalType":"address"},{"name":"operator","type":"address","internalType":"address"}],"outputs":[{"name":"","type":"bool","internalType":"bool"}],"stateMutability":"view"},{"type":"function","name":"isCold","inputs":[{"name":"streamId","type":"uint256","internalType":"uint256"}],"outputs":[{"name":"result","type":"bool","internalType":"bool"}],"stateMutability":"view"},{"type":"function","name":"isDepleted","inputs":[{"name":"streamId","type":"uint256","internalType":"uint256"}],"outputs":[{"name":"result","type":"bool","internalType":"bool"}],"stateMutability":"view"},{"type":"function","name":"isStream","inputs":[{"name":"streamId","type":"uint256","internalType":"uint256"}],"outputs":[{"name":"result","type":"bool","internalType":"bool"}],"stateMutability":"view"},{"type":"function","name":"isTransferable","inputs":[{"name":"streamId","type":"uint256","internalType":"uint256"}],"outputs":[{"name":"result","type":"bool","internalType":"bool"}],"stateMutability":"view"},{"type":"function","name":"isWarm","inputs":[{"name":"streamId","type":"uint256","internalType":"uint256"}],"outputs":[{"name":"result","type":"bool","internalType":"bool"}],"stateMutability":"view"},{"type":"function","name":"name","inputs":[],"outputs":[{"name":"","type":"string","internalType":"string"}],"stateMutability":"view"},{"type":"function","name":"nextStreamId","inputs":[],"outputs":[{"name":"","type":"uint256","internalType":"uint256"}],"stateMutability":"view"},{"type":"function","name":"ownerOf","inputs":[{"name":"tokenId","type":"uint256","internalType":"uint256"}],"outputs":[{"name":"","type":"address","internalType":"address"}],"stateMutability":"view"},{"type":"function","name":"refundableAmountOf","inputs":[{"name":"streamId","type":"uint256","internalType":"uint256"}],"outputs":[{"name":"refundableAmount","type":"uint128","internalType":"uint128"}],"stateMutability":"view"},{"type":"function","name":"safeTransferFrom","inputs":[{"name":"from","type":"address","internalType":"address"},{"name":"to","type":"address","internalType":"address"},{"name":"tokenId","type":"uint256","internalType":"uint256"}],"outputs":[],"stateMutability":"nonpayable"},{"type":"function","name":"safeTransferFrom","inputs":[{"name":"from","type":"address","internalType":"address"},{"name":"to","type":"address","internalType":"address"},{"name":"tokenId","type":"uint256","internalType":"uint256"},{"name":"data","type":"bytes","internalType":"bytes"}],"outputs":[],"stateMutability":"nonpayable"},{"type":"function","name":"setApprovalForAll","inputs":[{"name":"operator","type":"address","internalType":"address"},{"name":"approved","type":"bool","internalType":"bool"}],"outputs":[],"stateMutability":"nonpayable"},{"type":"function","name":"statusOf","inputs":[{"name":"streamId","type":"uint256","internalType":"uint256"}],"outputs":[{"name":"status","type":"uint8","internalType":"enum Lockup.Status"}],"stateMutability":"view"},{"type":"function","name":"streamedAmountOf","inputs":[{"name":"streamId","type":"uint256","internalType":"uint256"}],"outputs":[{"name":"streamedAmount","type":"uint128","internalType":"uint128"}],"stateMutability":"view"},{"type":"function","name":"supportsInterface","inputs":[{"name":"interfaceId","type":"bytes4","internalType":"bytes4"}],"outputs":[{"name":"","type":"bool","internalType":"bool"}],"stateMutability":"view"},{"type":"function","name":"symbol","inputs":[],"outputs":[{"name":"","type":"string","internalType":"string"}],"stateMutability":"view"},{"type":"function","name":"tokenURI","inputs":[{"name":"streamId","type":"uint256","internalType":"uint256"}],"outputs":[{"name":"uri","type":"string","internalType":"string"}],"stateMutability":"view"},{"type":"function","name":"transferAdmin","inputs":[{"name":"newAdmin","type":"address","internalType":"address"}],"outputs":[],"stateMutability":"nonpayable"},{"type":"function","name":"transferFrom","inputs":[{"name":"from","type":"address","internalType":"address"},{"name":"to","type":"address","internalType":"address"},{"name":"tokenId","type":"uint256","internalType":"uint256"}],"outputs":[],"stateMutability":"nonpayable"},{"type":"function","name":"withdraw","inputs":[{"name":"streamId","type":"uint256","internalType":"uint256"},{"name":"to","type":"address","internalType":"address"},{"name":"amount","type":"uint128","internalType":"uint128"}],"outputs":[],"stateMutability":"payable"},{"type":"function","name":"withdrawMax","inputs":[{"name":"streamId","type":"uint256","internalType":"uint256"},{"name":"to","type":"address","internalType":"address"}],"outputs":[{"name":"withdrawnAmount","type":"uint128","internalType":"uint128"}],"stateMutability":"payable"},{"type":"function","name":"withdrawMaxAndTransfer","inputs":[{"name":"streamId","type":"uint256","internalType":"uint256"},{"name":"newRecipient","type":"address","internalType":"address"}],"outputs":[{"name":"withdrawnAmount","type":"uint128","internalType":"uint128"}],"stateMutability":"payable"},{"type":"function","name":"withdrawMultiple","inputs":[{"name":"streamIds","type":"uint256[]","internalType":"uint256[]"},{"name":"amounts","type":"uint128[]","internalType":"uint128[]"}],"outputs":[],"stateMutability":"payable"},{"type":"function","name":"withdrawableAmountOf","inputs":[{"name":"streamId","type":"uint256","internalType":"uint256"}],"outputs":[{"name":"withdrawableAmount","type":"uint128","internalType":"uint128"}],"stateMutability":"view"},{"type":"event","name":"Approval","inputs":[{"name":"owner","type":"address","indexed":true,"internalType":"address"},{"name":"approved","type":"address","indexed":true,"internalType":"address"},{"name":"tokenId","type":"uint256","indexed":true,"internalType":"uint256"}],"anonymous":false},{"type":"event","name":"ApprovalForAll","inputs":[{"name":"owner","type":"address","indexed":true,"internalType":"address"},{"name":"operator","type":"address","indexed":true,"internalType":"address"},{"name":"approved","type":"bool","indexed":false,"internalType":"bool"}],"anonymous":false},{"type":"event","name":"BatchMetadataUpdate","inputs":[{"name":"_fromTokenId","type":"uint256","indexed":false,"internalType":"uint256"},{"name":"_toTokenId","type":"uint256","indexed":false,"internalType":"uint256"}],"anonymous":false},{"type":"event","name":"CreateLockupLinearStream","inputs":[{"name":"streamId","type":"uint256","indexed":true,"internalType":"uint256"},{"name":"commonParams","type":"tuple","indexed":false,"internalType":"struct Lockup.CreateEventCommon","components":[{"name":"funder","type":"address","internalType":"address"},{"name":"sender","type":"address","internalType":"address"},{"name":"recipient","type":"address","internalType":"address"},{"name":"amounts","type":"tuple","internalType":"struct Lockup.CreateAmounts","components":[{"name":"deposit","type":"uint128","internalType":"uint128"},{"name":"brokerFee","type":"uint128","internalType":"uint128"}]},{"name":"token","type":"address","internalType":"contract IERC20"},{"name":"transferable","type":"bool","internalType":"bool"},{"name":"timestamps","type":"tuple","internalType":"struct Lockup.Timestamps","components":[{"name":"start","type":"uint40","internalType":"uint40"},{"name":"end","type":"uint40","internalType":"uint40"}]},{"name":"shape","type":"string","internalType":"string"},{"name":"broker","type":"address","internalType":"address"}]},{"name":"cliffTime","type":"uint40","indexed":false,"internalType":"uint40"},{"name":"unlockAmounts","type":"tuple","indexed":false,"internalType":"struct LockupLinear.UnlockAmounts","components":[{"name":"start","type":"uint128","internalType":"uint128"},{"name":"cliff","type":"uint128","internalType":"uint128"}]}],"anonymous":false},{"type":"event","name":"CreateLockupTranchedStream","inputs":[{"name":"streamId","type":"uint256","indexed":true,"internalType":"uint256"},{"name":"commonParams","type":"tuple","indexed":false,"internalType":"struct Lockup.CreateEventCommon","components":[{"name":"funder","type":"address","internalType":"address"},{"name":"sender","type":"address","internalType":"address"},{"name":"recipient","type":"address","internalType":"address"},{"name":"amounts","type":"tuple","internalType":"struct Lockup.CreateAmounts","components":[{"name":"deposit","type":"uint128","internalType":"uint128"},{"name":"brokerFee","type":"uint128","internalType":"uint128"}]},{"name":"token","type":"address","internalType":"contract IERC20"},{"name":"transferable","type":"bool","internalType":"bool"},{"name":"timestamps","type":"tuple","internalType":"struct Lockup.Timestamps","components":[{"name":"start","type":"uint40","internalType":"uint40"},{"name":"end","type":"uint40","internalType":"uint40"}]},{"name":"shape","type":"string","internalType":"string"},{"name":"broker","type":"address","internalType":"address"}]},{"name":"tranches","type":"tuple[]","indexed":false,"internalType":"struct LockupTranched.Tranche[]","components":[{"name":"amount","type":"uint128","internalType":"uint128"},{"name":"timestamp","type":"uint40","internalType":"uint40"}]}],"anonymous":false},{"type":"event","name":"InvalidWithdrawalInWithdrawMultiple","inputs":[{"name":"streamId","type":"uint256","indexed":false,"internalType":"uint256"},{"name":"revertData","type":"bytes","indexed":false,"internalType":"bytes"}],"anonymous":false},{"type":"event","name":"MetadataUpdate","inputs":[{"name":"_tokenId","type":"uint256","indexed":false,"internalType":"uint256"}],"anonymous":false},{"type":"event","name":"Transfer","inputs":[{"name":"from","type":"address","indexed":true,"internalType":"address"},{"name":"to","type":"address","indexed":true,"internalType":"address"},{"name":"tokenId","type":"uint256","indexed":true,"internalType":"uint256"}],"anonymous":false},{"type":"event","name":"TransferAdmin","inputs":[{"name":"oldAdmin","type":"address","indexed":true,"internalType":"address"},{"name":"newAdmin","type":"address","indexed":true,"internalType":"address"}],"anonymous":false},{"type":"event","name":"WithdrawFromLockupStream","inputs":[{"name":"streamId","type":"uint256","indexed":true,"internalType":"uint256"},{"name":"to","type":"address","indexed":true,"internalType":"address"},{"name":"token","type":"address","indexed":true,"internalType":"contract IERC20"},{"name":"amount","type":"uint128","indexed":false,"internalType":"uint128"}],"anonymous":false},{"type":"error","name":"CallerNotAdmin","inputs":[{"name":"admin","type":"address","internalType":"address"},{"name":"caller","type":"address","internalType":"address"}]},{"type":"error","name":"DelegateCall","inputs":[]},{"type":"error","name":"ERC721IncorrectOwner","inputs":[{"name":"sender","type":"address","internalType":"address"},{"name":"tokenId","type":"uint256","internalType":"uint256"},{"name":"owner","type":"address","internalType":"address"}]},{"type":"error","name":"ERC721InsufficientApproval","inputs":[{"name":"operator","type":"address","internalType":"address"},{"name":"tokenId","type":"uint256","internalType":"uint256"}]},{"type":"error","name":"ERC721InvalidApprover","inputs":[{"name":"approver","type":"address","internalType":"address"}]},{"type":"error","name":"ERC721InvalidOperator","inputs":[{"name":"operator","type":"address","internalType":"address"}]},{"type":"error","name":"ERC721InvalidOwner","inputs":[{"name":"owner","type":"address","internalType":"address"}]},{"type":"error","name":"ERC721InvalidReceiver","inputs":[{"name":"receiver","type":"address","internalType":"address"}]},{"type":"error","name":"ERC721InvalidSender","inputs":[{"name":"sender","type":"address","internalType":"address"}]},{"type":"error","name":"ERC721NonexistentToken","inputs":[{"name":"tokenId","type":"uint256","internalType":"uint256"}]},{"type":"error","name":"SablierLockupBase_NotTransferable","inputs":[{"name":"tokenId","type":"uint256","internalType":"uint256"}]},{"type":"error","name":"SablierLockupBase_Null","inputs":[{"name":"streamId","type":"uint256","internalType":"uint256"}]},{"type":"error","name":"SablierLockupBase_Overdraw","inputs":[{"name":"streamId","type":"uint256","internalType":"uint256"},{"name":"amount","type":"uint128","internalType":"uint128"},{"name":"withdrawableAmount","type":"uint128","internalType":"uint128"}]},{"type":"error","name":"SablierLockupBase_StreamDepleted","inputs":[{"name":"streamId","type":"uint256","internalType":"uint256"}]},{"type":"error","name":"SablierLockupBase_StreamNotDepleted","inputs":[{"name":"streamId","type":"uint256","internalType":"uint256"}]},{"type":"error","name":"SablierLockupBase_Unauthorized","inputs":[{"name":"streamId","type":"uint256","internalType":"uint256"},{"name":"caller","type":"address","internalType":"address"}]},{"type":"error","name":"SablierLockupBase_WithdrawAmountZero","inputs":[{"name":"streamId","type":"uint256","internalType":"uint256"}]},{"type":"error","name":"SablierLockupBase_WithdrawArrayCountsNotEqual","inputs":[{"name":"streamIdsCount","type":"uint256","internalType":"uint256"},{"name":"amountsCount","type":"uint256","internalType":"uint256"}]},{"type":"error","name":"SablierLockupBase_WithdrawToZeroAddress","inputs":[{"name":"streamId","type":"uint256","internalType":"uint256"}]},{"type":"error","name":"SablierLockupBase_WithdrawalAddressNotRecipient","inputs":[{"name":"streamId","type":"uint256","internalType":"uint256"},{"name":"caller","type":"address","internalType":"address"},{"name":"to","type":"address","internalType":"address"}]},{"type":"error","name":"SablierLockup_NotExpectedModel","inputs":[{"name":"actualLockupModel","type":"uint8","internalType":"enum Lockup.Model"},{"name":"expectedLockupModel","type":"uint8","internalType":"enum Lockup.Model"}]},{"type":"error","name":"SafeERC20FailedOperation","inputs":[{"name":"token","type":"address","internalType":"address"}]}],"bytecode":{"object":"0x60c0604052346103995761473b6040813803918261001c8161039d565b9384928339810103126103995780516001600160a01b038116919082900361039957602001519061004d604061039d565b91601283527114d8589b1a595c88131bd8dadd5c0813919560721b6020840152610077604061039d565b600a81526905341422d4c4f434b55560b41b6020820152306080525f80546001600160a01b031916841781559092907fbdd36143ee09de60bdefca70680e0f71189b2ed7acee364b53917ad433fdaf808180a382516001600160401b0381116102aa57600154600181811c9116801561038f575b602082101461028c57601f811161032c575b506020601f82116001146102c957819293945f926102be575b50508160011b915f199060031b1c1916176001555b81516001600160401b0381116102aa57600254600181811c911680156102a0575b602082101461028c57601f8111610229575b50602092601f82116001146101c857928192935f926101bd575b50508160011b915f199060031b1c1916176002555b60a052600160075560405161437890816103c3823960805181612b2e015260a05181818161110c0152612e3a0152f35b015190505f80610178565b601f1982169360025f52805f20915f5b86811061021157508360019596106101f9575b505050811b0160025561018d565b01515f1960f88460031b161c191690555f80806101eb565b919260206001819286850151815501940192016101d8565b60025f527f405787fa12a823e0f2b7631cc41b3ba8828b3321ca811111fa75cd3aa3bb5ace601f830160051c81019160208410610282575b601f0160051c01905b818110610277575061015e565b5f815560010161026a565b9091508190610261565b634e487b7160e01b5f52602260045260245ffd5b90607f169061014c565b634e487b7160e01b5f52604160045260245ffd5b015190505f80610116565b601f1982169060015f52805f20915f5b818110610314575095836001959697106102fc575b505050811b0160015561012b565b01515f1960f88460031b161c191690555f80806102ee565b9192602060018192868b0151815501940192016102d9565b60015f527fb10e2d527612073b26eecdfd717e6a320cf44b4afac2b0732d9fcbe2b7fa0cf6601f830160051c81019160208410610385575b601f0160051c01905b81811061037a57506100fd565b5f815560010161036d565b9091508190610364565b90607f16906100eb565b5f80fd5b6040519190601f01601f191682016001600160401b038111838210176102aa5760405256fe60806040526004361015610011575f80fd5b5f3560e01c806301ffc9a71461031f578063027b67441461031a57806302c425b11461031557806306fdde0314610310578063081812fc1461030b578063095ea7b31461030657806312c608d0146103015780631400ecec146102fc5780631c1cdd4c146102f75780631e897afb146102f25780631e99d569146102ed57806323b872dd146102e8578063425d30dd146102e357806342842e0e146102de57806342966c68146102d95780634869e12d146102d45780634cc55e11146102cf57806363439de8146102ca5780636352211e146102c55780636d0cee75146102c557806370a08231146102c057806375829def146102bb57806377163c1d146102b6578063780a82c8146102b15780637f5799f9146102ac5780638f69b993146102a75780639067b677146102a257806395d89b411461029d578063a22cb46514610298578063a477577214610293578063a80fc0711461028e578063ad35efd414610289578063b098762314610284578063b25645691461027f578063b88d4fde1461027a578063b8a3be6614610275578063b971302a14610270578063bc2be1be1461026b578063c156a11d14610266578063c87b56dd14610261578063d4dbd20b1461025c578063d511609f14610257578063d975dfed14610252578063df2a848c1461024d578063e6c417eb14610248578063e985e9c514610243578063ea5ead191461023e578063f851a440146102395763fdd46d6014610234575f80fd5b61225e565b61221d565b612055565b611fef565b611f9c565b611efb565b611e9d565b611e3d565b611dd7565b611d77565b611b03565b611aa1565b611a3e565b611a09565b6119a1565b61185e565b611689565b611638565b6115be565b611558565b611498565b6113ce565b61136c565b6112fe565b611252565b61112f565b6110f5565b61106e565b611019565b610ffb565b610e52565b610cc9565b610c7c565b610bcd565b610ba4565b610b48565b610b31565b610ae8565b610a09565b610907565b610856565b6107eb565b6106af565b610662565b610573565b610425565b6103c3565b61033a565b6001600160e01b031981160361033657565b5f80fd5b346103365760203660031901126103365760043561035781610324565b63ffffffff60e01b16632483248360e11b8114908115610380575b506040519015158152602090f35b6380ac58cd60e01b8114915081156103b2575b81156103a1575b505f610372565b6301ffc9a760e01b1490505f61039a565b635b5e139f60e01b81149150610393565b34610336575f36600319011261033657602060405167016345785d8a00008152f35b90816101409103126103365790565b9181601f840112156103365782359167ffffffffffffffff8311610336576020808501948460061b01011161033657565b60403660031901126103365760043567ffffffffffffffff8111610336576104519036906004016103e5565b60243567ffffffffffffffff8111610336576104746104869136906004016103f4565b91909261047f612b24565b3690612481565b9061049081612532565b9261049e60405194856118ef565b818452602084019160061b81019036821161033657915b8183106104dd576104d96104c98686612de6565b6040519081529081906020820190565b0390f35b60408336031261033657602060409182516104f7816118ce565b853561050281612242565b815282860135610511816107dc565b838201528152019201916104b5565b91908251928382525f5b84811061054a575050825f602080949584010152601f8019910116010190565b8060208092840101518282860101520161052a565b906020610570928181520190610520565b90565b34610336575f366003190112610336576040515f6001548060011c9060018116908115610658575b60208310821461064457828552602085019190811561062b57506001146105d9575b6104d9846105cd818603826118ef565b6040519182918261055f565b60015f9081529250907fb10e2d527612073b26eecdfd717e6a320cf44b4afac2b0732d9fcbe2b7fa0cf65b818410610617575050016105cd826105bd565b805484840152602090930192600101610604565b60ff191682525090151560051b0190506105cd826105bd565b634e487b7160e01b5f52602260045260245ffd5b91607f169161059b565b3461033657602036600319011261033657602061068060043561254a565b6001600160a01b0360405191168152f35b6001600160a01b0381160361033657565b35906106ad82610691565b565b34610336576040366003190112610336576004356106cc81610691565b602435906106d982612f48565b331515806107a7575b80610767575b610751578261074f93610734926001600160a01b0380861691167f8c5be1e5ebec7d5bd14f71427d1e84f3dd0314c0f7b2291e5b200ac8c7c3b9255f80a45f52600560205260405f2090565b906001600160a01b03166001600160a01b0319825416179055565b005b63a9fbf51f60e01b5f523360045260245ffd5b5ffd5b5060ff61079f33610789846001600160a01b03165f52600660205260405f2090565b906001600160a01b03165f5260205260405f2090565b5416156106e8565b50336001600160a01b03821614156106e2565b604090602319011261033657602490565b604090606319011261033657606490565b64ffffffffff81160361033657565b60803660031901126103365760043567ffffffffffffffff81116103365761084e61081c60209236906004016103e5565b610825366107ba565b61084861084060643593610838856107dc565b61047f612b24565b91369061256c565b90613057565b604051908152f35b3461033657602036600319011261033657600435805f52600860205260ff600160405f20015460a81c16156108f5576104d9905f90805f52600860205260ff600160405f20015460a01c16156108c2575b506040516001600160801b0390911681529081906020820190565b6108ef9150805f5260086020526108e96001600160801b03600260405f2001541691613356565b906125b6565b5f6108a7565b631643770160e21b5f5260045260245ffd5b3461033657602036600319011261033657600435805f52600860205260ff600160405f20015460a81c16156108f55761093f90613585565b600481101561097457806104d99115908115610969575b5060405190151581529081906020820190565b60019150145f610956565b611624565b9181601f840112156103365782359167ffffffffffffffff8311610336576020808501948460051b01011161033657565b602081016020825282518091526040820191602060408360051b8301019401925f915b8383106109dc57505050505090565b90919293946020806109fa600193603f198682030187528951610520565b970193019301919392906109cd565b60203660031901126103365760043567ffffffffffffffff811161033657610a35903690600401610979565b90610a3f82612532565b91610a4d60405193846118ef565b808352601f19610a5c82612532565b015f5b818110610ad75750505f5b818110610a7f57604051806104d986826109aa565b5f80610a8c838587612622565b90610a9c60405180938193612642565b0390305af4610aa961264f565b9015610acf5790600191610abd828761267e565b52610ac8818661267e565b5001610a6a565b805190602001fd5b806060602080938801015201610a5f565b34610336575f366003190112610336576020600754604051908152f35b606090600319011261033657600435610b1d81610691565b90602435610b2a81610691565b9060443590565b346103365761074f610b4236610b05565b91612692565b3461033657602036600319011261033657600435805f52600860205260ff600160405f20015460a81c16156108f5575f5260086020526104d960ff600160405f20015460a01c1660405191829182919091602081019215159052565b346103365761074f610bb536610b05565b9060405192610bc56020856118ef565b5f84526129ec565b602036600319011261033657600435610be4612b24565b805f52600860205260ff600160405f20015460a81c16156108f557805f52600860205260ff600160405f20015460a01c1615610c6a57805f526003602052610c47610c43610c3d60405f206001600160a01b0390541690565b836136c3565b1590565b610c545761074f90613730565b634dda2c3960e11b5f526004523360245260445ffd5b63535d196d60e11b5f5260045260245ffd5b3461033657602036600319011261033657600435805f52600860205260ff600160405f20015460a81c16156108f557610cb490613818565b6040516001600160801b039091168152602090f35b60403660031901126103365760043567ffffffffffffffff811161033657610cf5903690600401610979565b60243567ffffffffffffffff811161033657610d15903690600401610979565b919092610d20612b24565b828203610e2a575f5b828110610d3257005b805f808488610dc9610d82610d7d878c610d77610d5e838f610d5760019f828d6127a4565b359a6127a4565b355f5260036020526001600160a01b0360405f20541690565b956127a4565b6127b4565b6040516307eea36b60e51b6020820190815260248201959095526001600160a01b039390931660448401526001600160801b031660648084019190915282526084826118ef565b5190305af4610dd661264f565b9015610de4575b5001610d29565b7f36b7a9a3f5bfe69ad6ae04107796a967de5c92c761b4d7a4c34e98567066641990610e118387876127a4565b35610e21604051928392836127be565b0390a15f610ddd565b636050d1ad60e11b5f526004829052602483905260445ffd5b90816101009103126103365790565b60a03660031901126103365760043567ffffffffffffffff811161033657610e7e903690600401610e43565b610e87366107ba565b610e90366107cb565b90610e99612b24565b610ea1611911565b4264ffffffffff16815292602084015f81525f93610ecb610ec1826127d5565b64ffffffffff1690565b610fd2575b855164ffffffffff1690602001610ee6906127d5565b610eef916127df565b64ffffffffff169052610f01816127fb565b93610f0e602083016127fb565b90610f1b604084016127b4565b90610f28606085016127fb565b610f3460808601612805565b90610f4260a08701876125ef565b949095610f4d611920565b6001600160a01b03909b168b526001600160a01b031660208b01526001600160801b031660408a01526001600160a01b031660608901521515608088015260a08701523690610f9b9261196b565b60c0850152369060c00190610faf91612450565b60e084015236610fbe9161256c565b610fc792613057565b604051908152602090f35b9350610ff5610fe6865164ffffffffff1690565b610fef866127d5565b906127df565b93610ed0565b34610336576020366003190112610336576020610680600435612f48565b34610336576020366003190112610336576001600160a01b0360043561103e81610691565b16801561105b575f526004602052602060405f2054604051908152f35b6322718ad960e21b5f525f60045260245ffd5b346103365760203660031901126103365760043561108b81610691565b5f54906001600160a01b0382163381036110df57506001600160a01b031680916001600160a01b031916175f55337fbdd36143ee09de60bdefca70680e0f71189b2ed7acee364b53917ad433fdaf805f80a3005b6331b339a960e21b5f526004523360245260445ffd5b34610336575f3660031901126103365760206040517f00000000000000000000000000000000000000000000000000000000000000008152f35b3461033657602036600319011261033657600435805f52600860205260ff600160405f20015460a81c16156108f557805f52600860205260ff600160405f20015460b81c166003811015610974576111bc576111a46111996104d9925f52600960205260405f2090565b5464ffffffffff1690565b60405164ffffffffff90911681529081906020820190565b5f5260086020526107646111db600160405f200160ff905460b81c1690565b637382cd8b60e01b5f5261280f565b90602080835192838152019201905f5b8181106112075750505090565b9091926020604082611236600194885164ffffffffff602080926001600160801b038151168552015116910152565b0194019291016111fa565b9060206105709281815201906111ea565b3461033657602036600319011261033657600435805f52600860205260ff600160405f20015460a81c16156108f557805f52600860205260ff600160405f20015460b81c166003811015610974576002036112d0576112c46112bf6104d9925f52600a60205260405f2090565b61283c565b60405191829182611241565b5f5260086020526107646112ef600160405f200160ff905460b81c1690565b637382cd8b60e01b5f52612825565b3461033657602036600319011261033657600435805f52600860205260ff600160405f20015460a81c16156108f55761133690613585565b6004811015610974578060026104d99214908115611361575060405190151581529081906020820190565b60039150145f610956565b3461033657602036600319011261033657600435805f52600860205260ff600160405f20015460a81c16156108f5575f5260086020526104d964ffffffffff60405f205460c81c166040519182918291909164ffffffffff6020820193169052565b34610336575f366003190112610336576040515f6002548060011c9060018116908115611479575b60208310821461064457828552602085019190811561062b5750600114611427576104d9846105cd818603826118ef565b60025f9081529250907f405787fa12a823e0f2b7631cc41b3ba8828b3321ca811111fa75cd3aa3bb5ace5b818410611465575050016105cd826105bd565b805484840152602090930192600101611452565b91607f16916113f6565b8015150361033657565b35906106ad82611483565b34610336576040366003190112610336576004356114b581610691565b6024356114c181611483565b6001600160a01b038216918215611545576114f890335f52600660205260405f20906001600160a01b03165f5260205260405f2090565b60ff1981541660ff831515161790557f17307eab39ab6107e8899845ad3d59bd9653f200f220920489ca2b5937696c3160405180611540339482919091602081019215159052565b0390a3005b82630b61174360e31b5f5260045260245ffd5b3461033657602036600319011261033657600435805f52600860205260ff600160405f20015460a81c16156108f5575f5260086020526104d96001600160a01b03600160405f20015416604051918291829190916001600160a01b036020820193169052565b3461033657602036600319011261033657600435805f52600860205260ff600160405f20015460a81c16156108f5575f5260086020526104d96001600160801b03600260405f20015416604051918291829190916001600160801b036020820193169052565b634e487b7160e01b5f52602160045260245ffd5b3461033657602036600319011261033657600435805f52600860205260ff600160405f20015460a81c16156108f55761167090613585565b6040519060208201600482101561097457829182520390f35b60403660031901126103365760043567ffffffffffffffff8111610336576116b5903690600401610e43565b60243567ffffffffffffffff8111610336576116d59036906004016103f4565b916116de612b24565b5f64ffffffffff42169384936117086040519586938493631441207960e01b85526004850161295f565b038173__$70ac0b9f44f1ad43af70526685fc041161$__5af4918215611859575f92611835575b50815161173b906129de565b611745908361267e565b516020015164ffffffffff16611759611911565b64ffffffffff909416845264ffffffffff166020840152611779816127fb565b92611786602083016127fb565b90611793604084016127b4565b906117a0606085016127fb565b6117ac60808601612805565b906117ba60a08701876125ef565b9490956117c5611920565b6001600160a01b03909a168a526001600160a01b031660208a01526001600160801b031660408901526001600160a01b031660608801521515608087015260a086015236906118139261196b565b60c0840152369060c0019061182791612450565b60e0830152610fc791612de6565b6118529192503d805f833e61184a81836118ef565b8101906128b0565b905f61172f565b6129d3565b3461033657602036600319011261033657600435805f52600860205260ff600160405f20015460a81c16156108f5575f5260086020526104d960ff600160405f20015460b01c1660405191829182919091602081019215159052565b634e487b7160e01b5f52604160045260245ffd5b6040810190811067ffffffffffffffff8211176118ea57604052565b6118ba565b90601f8019910116810190811067ffffffffffffffff8211176118ea57604052565b604051906106ad6040836118ef565b604051906106ad610100836118ef565b604051906106ad6060836118ef565b604051906106ad610120836118ef565b67ffffffffffffffff81116118ea57601f01601f191660200190565b9291926119778261194f565b9161198560405193846118ef565b829481845281830111610336578281602093845f960137010152565b34610336576080366003190112610336576004356119be81610691565b602435906119cb82610691565b6044356064359267ffffffffffffffff8411610336573660238501121561033657611a0361074f94369060248160040135910161196b565b926129ec565b34610336576020366003190112610336576004355f526008602052602060ff600160405f20015460a81c166040519015158152f35b3461033657602036600319011261033657600435805f52600860205260ff600160405f20015460a81c16156108f5575f5260086020526104d96001600160a01b0360405f205416604051918291829190916001600160a01b036020820193169052565b3461033657602036600319011261033657600435805f52600860205260ff600160405f20015460a81c16156108f5575f5260086020526104d964ffffffffff60405f205460a01c166040519182918291909164ffffffffff6020820193169052565b604036600319011261033657600435602435611b1e81610691565b611b26612b24565b815f52600860205260ff600160405f20015460a81c1615611d6457815f5260036020526001600160a01b0360405f20541690611b6282846136c3565b15611d4d57611b70836138a8565b916001600160801b03831680158015611bad575b6104d985611b938887876138ce565b6040516001600160801b0390911681529081906020820190565b611bb5612b24565b855f52600860205260ff600160405f20015460a81c1615611d3a57611bf26001611be7885f52600860205260405f2090565b015460a01c60ff1690565b611d26578215611d1257611c1e611c11875f52600360205260405f2090565b546001600160a01b031690565b6001600160a01b0381168414159081611cfd575b50611cd957611cc557611c44856138a8565b906001600160801b03821610611c9f575092611b939184611c69856104d99785613946565b6040518381527ff8e1a15aba9398e019f0b49df1a4fde98ee17ae345cb5f6b5e2c27f5033e8ce790602090a19194819350611b84565b632176546160e01b5f5260048590526001600160801b038085166024521660445260645ffd5b633dd1eadf60e21b5f52600485905260245ffd5b6297d0a360e61b5f526004869052336024526001600160a01b03831660445260645ffd5b611d0c9150610c4390886136c3565b5f611c32565b6316c90d2760e21b5f52600486905260245ffd5b63449491f560e11b5f52600486905260245ffd5b85631643770160e21b5f5260045260245ffd5b82634dda2c3960e11b5f526004523360245260445ffd5b50631643770160e21b5f5260045260245ffd5b34610336576020366003190112610336576104d9604051611d996040826118ef565b600f81527f4e6f7420696d706c656d656e74656400000000000000000000000000000000006020820152604051918291602083526020830190610520565b3461033657602036600319011261033657600435805f52600860205260ff600160405f20015460a81c16156108f5575f5260086020526104d96001600160801b03600360405f20015416604051918291829190916001600160801b036020820193169052565b3461033657602036600319011261033657600435805f52600860205260ff600160405f20015460a81c16156108f5575f5260086020526104d9600260405f20015460801c604051918291829190916001600160801b036020820193169052565b3461033657602036600319011261033657600435805f52600860205260ff600160405f20015460a81c16156108f557610cb4906138a8565b6106ad9092919260408101936001600160801b0360208092828151168552015116910152565b3461033657602036600319011261033657600435611f17612ae7565b50805f52600860205260ff600160405f20015460a81c16156108f557805f52600860205260ff600160405f20015460b81c166003811015610974576111bc57611f73611f6e6104d9925f52600b60205260405f2090565b612aff565b60405191829182611ed5565b6003111561097457565b9190602083019260038210156109745752565b3461033657602036600319011261033657600435805f52600860205260ff600160405f20015460a81c16156108f5575f5260086020526104d960ff600160405f20015460b81c1660405191829182611f89565b3461033657604036600319011261033657602060ff61204960043561201381610691565b6001600160a01b036024359161202883610691565b165f526006845260405f20906001600160a01b03165f5260205260405f2090565b54166040519015158152f35b60403660031901126103365760043560243561207081610691565b612079826138a8565b90612082612b24565b825f52600860205260ff600160405f20015460a81c161561220a576120b46001611be7855f52600860205260405f2090565b6121f6576001600160a01b03811680156121e2576120dd611c11855f52600360205260405f2090565b906001600160a01b038216141590816121cd575b506121aa576001600160801b03821680156121965761210f846138a8565b906001600160801b038216106121705750612153836104c9847ff8e1a15aba9398e019f0b49df1a4fde98ee17ae345cb5f6b5e2c27f5033e8ce7946104d997613946565b0390a16040516001600160801b0390911681529081906020820190565b632176546160e01b5f5260048490526001600160801b038084166024521660445260645ffd5b633dd1eadf60e21b5f52600484905260245ffd5b6297d0a360e61b5f526004839052336024526001600160a01b031660445260645ffd5b6121dc9150610c4390856136c3565b5f6120f1565b6316c90d2760e21b5f52600484905260245ffd5b63449491f560e11b5f52600483905260245ffd5b82631643770160e21b5f5260045260245ffd5b34610336575f3660031901126103365760206001600160a01b035f5416604051908152f35b6001600160801b0381160361033657565b35906106ad82612242565b60603660031901126103365760243560043561227982610691565b60443561228581612242565b61228d612b24565b815f52600860205260ff600160405f20015460a81c1615611d64576122bf6001611be7845f52600860205260405f2090565b6123e7576001600160a01b03831680156123d3576122e8611c11845f52600360205260405f2090565b906001600160a01b038216141590816123be575b5061239a576001600160801b03811680156123865761231a836138a8565b906001600160801b0382161061235f577ff8e1a15aba9398e019f0b49df1a4fde98ee17ae345cb5f6b5e2c27f5033e8ce761235a846104c9858883613946565b0390a1005b632176546160e01b5f526004929092526001600160801b039081166024521660445260645ffd5b633dd1eadf60e21b5f52600483905260245ffd5b6297d0a360e61b5f526004829052336024526001600160a01b03831660445260645ffd5b6123cd9150610c4390846136c3565b5f6122fc565b6316c90d2760e21b5f52600483905260245ffd5b63449491f560e11b5f52600482905260245ffd5b919082604091031261033657604051612413816118ce565b60208082948035612423816107dc565b8452013591612431836107dc565b0152565b9080601f83011215610336578160206105709335910161196b565b919082604091031261033657604051612468816118ce565b6020808294803561247881610691565b84520135910152565b9190916101408184031261033657612497611920565b926124a1826106a2565b84526124af602083016106a2565b60208501526124c060408301612253565b60408501526124d1606083016106a2565b60608501526124e26080830161148d565b60808501526124f48160a084016123fb565b60a085015260e082013567ffffffffffffffff81116103365782612520836101009361252b9601612435565b60c087015201612450565b60e0830152565b67ffffffffffffffff81116118ea5760051b60200190565b61255381612f48565b505f5260056020526001600160a01b0360405f20541690565b919082604091031261033657604051612584816118ce565b6020808294803561259481612242565b845201359161243183612242565b634e487b7160e01b5f52601160045260245ffd5b906001600160801b03809116911603906001600160801b0382116125d657565b6125a2565b634e487b7160e01b5f52603260045260245ffd5b903590601e1981360301821215610336570180359067ffffffffffffffff82116103365760200191813603831361033657565b9082101561263d576126399160051b8101906125ef565b9091565b6125db565b908092918237015f815290565b3d15612679573d906126608261194f565b9161266e60405193846118ef565b82523d5f602084013e565b606090565b805182101561263d5760209160051b010190565b91906001600160a01b0381161561279157815f5260036020526001600160a01b0360405f205416151580612789575b8061275e575b61274a5760405182815261270491907ff8e1a15aba9398e019f0b49df1a4fde98ee17ae345cb5f6b5e2c27f5033e8ce790602090a18233916140b1565b916001600160a01b0381166001600160a01b0384160361272357505050565b6364283d7b60e01b5f526001600160a01b039081166004526024919091521660445260645ffd5b6349d74b1160e11b5f52600482905260245ffd5b50612784610c436001612779855f52600860205260405f2090565b015460b01c60ff1690565b6126c7565b5060016126c1565b633250574960e11b5f525f60045260245ffd5b919081101561263d5760051b0190565b3561057081612242565b604090610570939281528160208201520190610520565b35610570816107dc565b9064ffffffffff8091169116019064ffffffffff82116125d657565b3561057081610691565b3561057081611483565b906044916003811015610974576004525f602452565b906044916003811015610974576004526002602452565b90815461284881612532565b9261285660405194856118ef565b81845260208401905f5260205f205f915b8383106128745750505050565b600160208192604051612886816118ce565b64ffffffffff86546001600160801b038116835260801c1683820152815201920192019190612867565b6020818303126103365780519067ffffffffffffffff8211610336570181601f82011215610336578051906128e482612532565b926128f260405194856118ef565b82845260208085019360061b8301019181831161033657602001925b82841061291c575050505090565b6040848303126103365760206040918251612936816118ce565b865161294181612242565b815282870151612950816107dc565b8382015281520193019261290e565b91939293806040840160408552526060830191905f5b81811061298f5750505064ffffffffff6020919416910152565b9091926040806001926001600160801b0387356129ab81612242565b16815264ffffffffff60208801356129c2816107dc565b166020820152019401929101612975565b6040513d5f823e3d90fd5b5f198101919082116125d657565b9092916129fa818584612692565b833b612a07575b50505050565b602091612a296040519485938493630a85bd0160e11b8552336004860161387a565b03815f6001600160a01b0387165af15f9181612ab6575b50612a7a5750612a4e61264f565b8051919082612a7357633250574960e11b5f526001600160a01b03821660045260245ffd5b6020915001fd5b6001600160e01b03191663757a42ff60e11b01612a9b57505f808080612a01565b633250574960e11b5f526001600160a01b031660045260245ffd5b612ad991925060203d602011612ae0575b612ad181836118ef565b810190613865565b905f612a40565b503d612ac7565b60405190612af4826118ce565b5f6020838281520152565b90604051612b0c816118ce565b91546001600160801b038116835260801c6020830152565b6001600160a01b037f0000000000000000000000000000000000000000000000000000000000000000163003612b5657565b63a1c0d6e560e01b5f5260045ffd5b9081604091031261033657602060405191612b7f836118ce565b8051612b8a81612242565b83520151612b9781612242565b602082015290565b97969492612be16001600160801b0392939795976001600160a01b036101208c0195168b5260208b019064ffffffffff60208092828151168552015116910152565b16606088015261012060808801528451809152602061014088019501905f5b818110612c39575050509261010092612c349267016345785d8a00009560a089015260c088015286820360e0880152610520565b930152565b9091956020604082612c686001948b5164ffffffffff602080926001600160801b038151168552015116910152565b019701929101612c00565b8054680100000000000000008110156118ea576001810180835581101561263d576020915f52815f200191612cc86001600160801b0382511684906001600160801b03166001600160801b0319825416179055565b015164ffffffffff60801b82549160801b169064ffffffffff60801b1916179055565b80516001600160a01b0316825290610570906020838101516001600160a01b0316908201526040838101516001600160a01b031690820152612d4a606084015160608301906001600160801b0360208092828151168552015116910152565b60808301516001600160a01b031660a082015260a0830151151560c0820152612d8e60c084015160e083019064ffffffffff60208092828151168552015116910152565b610140610100612db060e0860151610160610120860152610160850190610520565b9401516001600160a01b0316910152565b9091612dd861057093604084526040840190612ceb565b9160208184039101526111ea565b9190806040612dfc85516001600160a01b031690565b60a0860151612e63612e17848901516001600160801b031690565b92602060e08a0151015160c08a01519186519788968796636df2695560e01b88527f00000000000000000000000000000000000000000000000000000000000000009360048901612b9f565b038173__$70ac0b9f44f1ad43af70526685fc041161$__5af4908115611859575f91612f19575b50929060075493849282515f5b818110612ee15750507fc57cd11bf505a10beb4a4dd3cd93c8df30c54f040db0326446bc151cbc92b6ad9291612ecd9185613d6c565b612edc60405192839283612dc1565b0390a2565b612f0d612efc600193949596975f52600a60205260405f2090565b612f06838961267e565b5190612c73565b01908694939291612e97565b612f3b915060403d604011612f41575b612f3381836118ef565b810190612b65565b5f612e8a565b503d612f29565b805f5260036020526001600160a01b0360405f205416908115612f69575090565b637e27328960e01b5f5260045260245ffd5b979692946001600160801b03612c349564ffffffffff61012098612fcf67016345785d8a00009b9760208f6001600160a01b03612ffa9a168152019064ffffffffff60208092828151168552015116910152565b1660608c01521660808a015260a08901906001600160801b0360208092828151168552015116910152565b60e0870152610140610100870152610140860190610520565b60409064ffffffffff6130346106ad95979694608084526080840190612ceb565b9616602082015201906001600160801b0360208092828151168552015116910152565b9091809392604061306f84516001600160a01b031690565b60a0850151906130b561308b848801516001600160801b031690565b602060e089015101518660c08a01519287519c8d978897630cec85a960e41b895260048901612f7b565b038173__$70ac0b9f44f1ad43af70526685fc041161$__5af4948515611859575f95613201575b50907fbf71c3a4e62212d1f1bcee4c19459ead24f0d3136882b99b9cf4cce4e1a30aab91612edc61314060075497889661311d85516001600160801b031690565b6001600160801b0381166131ca575b5064ffffffffff861661314d575b87614023565b9160405193849384613013565b61317a866131638a5f52600960205260405f2090565b9064ffffffffff1664ffffffffff19825416179055565b60208501516001600160801b031680613194575b5061313a565b6131c4906131aa8a5f52600b60205260405f2090565b906001600160801b0382549181199060801b169116179055565b5f61318e565b6131fb906131e08a5f52600b60205260405f2090565b906001600160801b03166001600160801b0319825416179055565b5f61312c565b7fbf71c3a4e62212d1f1bcee4c19459ead24f0d3136882b99b9cf4cce4e1a30aab9291955061323e9060403d604011612f4157612f3381836118ef565b9490916130dc565b90816020910312610336575161057081612242565b909261329d9064ffffffffff60c0946001600160801b0360a0860197168552166020840152604083019064ffffffffff60208092828151168552015116910152565b60a06080820152835480935201915f5260205f20905f5b8181106132c15750505090565b82546001600160801b038116855260801c64ffffffffff166020850152604090930192600192830192016132b4565b949096959160e0946133396001600160801b039564ffffffffff8094886101008c019d168b521660208a0152604089019064ffffffffff60208092828151168552015116910152565b1660808601525482811660a086015260801c60c085015216910152565b64ffffffffff42166133836002613375845f52600860205260405f2090565b01546001600160801b031690565b906133a6600161339b855f52600860205260405f2090565b015460b81c60ff1690565b915f936133cc6133be825f52600860205260405f2090565b5460a01c64ffffffffff1690565b936134196133f36133e5845f52600860205260405f2090565b5460c81c64ffffffffff1690565b61340b6133fe611911565b64ffffffffff9098168852565b64ffffffffff166020870152565b61342281611f7f565b806134e75750602093945080613446611199613494935f52600960205260405f2090565b906134786002613470613461845f52600b60205260405f2090565b935f52600860205260405f2090565b015460801c90565b91604051978896879663987117a360e01b8852600488016132f0565b038173__$a5f83f921acff269341ef3c300f67f6dd4$__5af4908115611859575f916134be575090565b610570915060203d6020116134e0575b6134d881836118ef565b810190613246565b503d6134ce565b806134f3600292611f7f565b14613500575b5050505090565b602093945061351a613535915f52600a60205260405f2090565b60405163485c4f5d60e01b815295869485946004860161325b565b038173__$a5f83f921acff269341ef3c300f67f6dd4$__5af4908115611859575f91613566575b505f8080806134f9565b61357f915060203d6020116134e0576134d881836118ef565b5f61355c565b805f52600860205260ff600160405f20015460a01c1661360b576135b7610ec16133be835f52600860205260405f2090565b4210613606576001600160801b036135f46135e860026133756135d986613356565b955f52600860205260405f2090565b6001600160801b031690565b9116101561360157600190565b600290565b505f90565b50600390565b815f5260036020526001600160a01b0360405f2054161515806136b1575b8061368e575b61367b57610570915f917ff8e1a15aba9398e019f0b49df1a4fde98ee17ae345cb5f6b5e2c27f5033e8ce76040518061367385829190602083019252565b0390a16140b1565b506349d74b1160e11b5f5260045260245ffd5b5060ff60016136a5845f52600860205260405f2090565b015460b01c1615613635565b506001600160a01b038116151561362f565b906001600160a01b0316908133149182156136fd575b5081156136e4575090565b90506001600160a01b036136f8339261254a565b161490565b9091505f52600660205260ff6137273360405f20906001600160a01b03165f5260205260405f2090565b5416905f6136d9565b805f5260036020526001600160a01b0360405f2054161515806137ce575b806137b0575b61379e577ff8e1a15aba9398e019f0b49df1a4fde98ee17ae345cb5f6b5e2c27f5033e8ce76020604051838152a16001600160a01b036137955f83816140b1565b1615612f695750565b6349d74b1160e11b5f5260045260245ffd5b506137c86001612779835f52600860205260405f2090565b15613754565b505f61374e565b906040516060810181811067ffffffffffffffff8211176118ea5760405260406001600160801b03600183958054838116865260801c6020860152015416910152565b805f52600860205261382f600260405f20016137d5565b90805f52600860205260ff600160405f20015460a01c16613854576105709150613356565b50602001516001600160801b031690565b90816020910312610336575161057081610324565b90926001600160a01b0360809381610570979616845216602083015260408201528160608201520190610520565b610570906138b581613818565b905f526008602052600260405f20015460801c906125b6565b909291926001600160a01b0381161561279157836138eb91613611565b906001600160a01b0382168061390e5784637e27328960e01b5f5260045260245ffd5b6001600160a01b038295939495160361272357505050565b906001600160801b03809116911601906001600160801b0382116125d657565b91909161399b61396c836139676002613470865f52600860205260405f2090565b613926565b6002613980845f52600860205260405f2090565b01906001600160801b0382549181199060801b169116179055565b6139b860026139b2835f52600860205260405f2090565b016137d5565b6001600160801b03613a006135e86139da60208501516001600160801b031690565b936108e960406139f183516001600160801b031690565b9201516001600160801b031690565b91161015613a87575b7f40b88e5c41c5a97ffb7b6ef88a0a2d505aa0c634cf8a0275cb236ea7dd87ed4d6001600160a01b03613a576001613a49855f52600860205260405f2090565b01546001600160a01b031690565b613a6b6001600160801b038616878361425f565b6040516001600160801b039590951685528116941692602090a4565b613ac36001613a9e835f52600860205260405f2090565b01805460ff60a01b191674010000000000000000000000000000000000000000179055565b613a09565b60405190610120820182811067ffffffffffffffff8211176118ea576040525f61010083828152826020820152826040820152613b03612ae7565b60608201528260808201528260a0820152613b1c612ae7565b60c0820152606060e08201520152565b60038210156109745752565b90600381101561097457815460ff60b81b191660b89190911b60ff60b81b16179055565b8151602083015160801b6fffffffffffffffffffffffffffffffff199081166001600160801b03928316178355604090930151600190920180549093169116179055565b60026101006106ad93613bd9613bbd82516001600160a01b031690565b85546001600160a01b0319166001600160a01b03909116178555565b613c38613bee602083015164ffffffffff1690565b85547fffffffffffffff0000000000ffffffffffffffffffffffffffffffffffffffff1660a09190911b78ffffffffff000000000000000000000000000000000000000016178555565b613c86613c4d604083015164ffffffffff1690565b85547fffff0000000000ffffffffffffffffffffffffffffffffffffffffffffffffff1660c89190911b64ffffffffff60c81b16178555565b613d6360018501613cc0613ca460608501516001600160a01b031690565b82546001600160a01b0319166001600160a01b03909116178255565b613cfb613cd06080850151151590565b825460ff60a01b191690151560a01b74ff000000000000000000000000000000000000000016178255565b613d25613d0b60a0850151151590565b825460ff60a81b191690151560a81b60ff60a81b16178255565b613d4f613d3560c0850151151590565b825460ff60b01b191690151560b01b60ff60b01b16178255565b60e083015190613d5e82611f7f565b613b38565b01519101613b5c565b61057091602093613d7b613ac8565b50613fd6613d9083516001600160a01b031690565b613fcd60a0850191825194613eb2613dbe8b613db1895164ffffffffff1690565b98015164ffffffffff1690565b926060890197613e87613dd88a516001600160a01b031690565b95613e7160808d0197613e61613dee8a51151590565b93613e53613e038b516001600160801b031690565b97613e1e613e0f611930565b6001600160801b03909a168a52565b60205f908a01525f60408a0152613e45613e3661193f565b6001600160a01b03909b168b52565b64ffffffffff1660208a0152565b64ffffffffff166040880152565b6001600160a01b03166060860152565b5f6080850152600160a0850152151560c0840152565b613e95600260e08401613b2c565b610100820152613ead8a5f52600860205260405f2090565b613ba0565b613edb60018b890199613ed581613ed08d516001600160a01b031690565b61429b565b01600755565b613f0d613eef87516001600160a01b031690565b613f036135e884516001600160801b031690565b90309033906142d6565b613f236135e88b8301516001600160801b031690565b80613ff1575b50613fb8613f6a613f63613f55613f478b516001600160a01b031690565b9b516001600160a01b031690565b98516001600160a01b031690565b9351151590565b945196613fa8613f8b60e060c08c01519b01516001600160a01b0390511690565b9a613f9461193f565b3381529d8e01906001600160a01b03169052565b6001600160a01b031660408c0152565b60608a01526001600160a01b03166080890152565b151560a0870152565b60c085015260e08401526001600160a01b0316610100830152565b61401d9061400688516001600160a01b031690565b60e08a0151516001600160a01b03169033906142d6565b5f613f29565b61057091602093614032613ac8565b50613fd661404783516001600160a01b031690565b613fcd60a0850191825194613eb26140688b613db1895164ffffffffff1690565b926060890197614082613dd88a516001600160a01b031690565b613e955f60e08401613b2c565b6140a1905f52600560205260405f2090565b80546001600160a01b0319169055565b815f5260036020526001600160a01b0360405f205416926001600160a01b03811661418c575b506001600160a01b0383168061415c575b61410e6001600160a01b0383169283614135575b610734855f52600360205260405f2090565b7fddf252ad1be2c89b69c2b068fc378daa952ba7f163c4a11628f55a4df523b3ef5f80a490565b614150816001600160a01b03165f52600460205260405f2090565b600181540190556140fc565b6141658361408f565b614180846001600160a01b03165f52600460205260405f2090565b80545f190190556140e8565b6141a76001600160a01b03821680151590816141ed57501590565b156140d757826001600160a01b0385166141cd57637e27328960e01b5f5260045260245ffd5b63177e802f60e01b5f526001600160a01b0390911660045260245260445ffd5b6001600160a01b0387168082149250821561422c575b50811561420f57501590565b9050845f5260056020526001600160a01b0360405f205416141590565b9091505f52600660205260ff6142568460405f20906001600160a01b03165f5260205260405f2090565b5416905f614203565b6106ad926001600160a01b036040519363a9059cbb60e01b60208601521660248401526044830152604482526142966064836118ef565b614317565b6001600160a01b03811615612791576001600160a01b03916142bc91613611565b166142c357565b6339e3563760e11b5f525f60045260245ffd5b9091926001600160a01b036106ad9481604051956323b872dd60e01b60208801521660248601521660448401526064830152606482526142966084836118ef565b905f602091828151910182855af1156129d3575f513d61436257506001600160a01b0381163b155b6143465750565b6001600160a01b0390635274afe760e01b5f521660045260245ffd5b6001141561433f56fea164736f6c634300081a000a","linkReferences":{"src/libraries/Helpers.sol":{"Helpers":[{"start":6863,"length":20},{"start":12842,"length":20},{"start":13436,"length":20}]},"src/libraries/VestingMath.sol":{"VestingMath":[{"start":14427,"length":20},{"start":14588,"length":20}]}}},"methodIdentifiers":{"MAX_BROKER_FEE()":"027b6744","MAX_COUNT()":"77163c1d","admin()":"f851a440","approve(address,uint256)":"095ea7b3","balanceOf(address)":"70a08231","batch(bytes[])":"1e897afb","burn(uint256)":"42966c68","createWithDurationsLL((address,address,uint128,address,bool,string,(address,uint256)),(uint128,uint128),(uint40,uint40))":"63439de8","createWithDurationsLT((address,address,uint128,address,bool,string,(address,uint256)),(uint128,uint40)[])":"b0987623","createWithTimestampsLL((address,address,uint128,address,bool,(uint40,uint40),string,(address,uint256)),(uint128,uint128),uint40)":"12c608d0","createWithTimestampsLT((address,address,uint128,address,bool,(uint40,uint40),string,(address,uint256)),(uint128,uint40)[])":"02c425b1","getApproved(uint256)":"081812fc","getCliffTime(uint256)":"780a82c8","getDepositedAmount(uint256)":"a80fc071","getEndTime(uint256)":"9067b677","getLockupModel(uint256)":"e6c417eb","getRecipient(uint256)":"6d0cee75","getRefundedAmount(uint256)":"d4dbd20b","getSender(uint256)":"b971302a","getStartTime(uint256)":"bc2be1be","getTranches(uint256)":"7f5799f9","getUnderlyingToken(uint256)":"a4775772","getUnlockAmounts(uint256)":"df2a848c","getWithdrawnAmount(uint256)":"d511609f","isApprovedForAll(address,address)":"e985e9c5","isCold(uint256)":"8f69b993","isDepleted(uint256)":"425d30dd","isStream(uint256)":"b8a3be66","isTransferable(uint256)":"b2564569","isWarm(uint256)":"1c1cdd4c","name()":"06fdde03","nextStreamId()":"1e99d569","ownerOf(uint256)":"6352211e","refundableAmountOf(uint256)":"1400ecec","safeTransferFrom(address,address,uint256)":"42842e0e","safeTransferFrom(address,address,uint256,bytes)":"b88d4fde","setApprovalForAll(address,bool)":"a22cb465","statusOf(uint256)":"ad35efd4","streamedAmountOf(uint256)":"4869e12d","supportsInterface(bytes4)":"01ffc9a7","symbol()":"95d89b41","tokenURI(uint256)":"c87b56dd","transferAdmin(address)":"75829def","transferFrom(address,address,uint256)":"23b872dd","withdraw(uint256,address,uint128)":"fdd46d60","withdrawMax(uint256,address)":"ea5ead19","withdrawMaxAndTransfer(uint256,address)":"c156a11d","withdrawMultiple(uint256[],uint128[])":"4cc55e11","withdrawableAmountOf(uint256)":"d975dfed"},"id":59}